S01700004763634170706C69636174696F6E312E737265635B
S11300000C942A000C9434000C9434000C943400A6
S11300100C9434000C9434000C9434000C9434008C
S11300200C9434000C9434000C9434000C9434007C
S11300300C9434000C9434000C9434000C9434006C
S11300400C9434000C9434000C9434000C9434005C
S11300500C94340011241FBECFE5D8E0DEBFCDBF21
S11300600E9436000C9447000C940000B89AC09A81
S113007087EA91E60197F1F700C0000088B318BA47
S113008087EA91E60197F1F700C00000F0CFF894F9
S1050090FFCF9C
S9030000FC
